{
  "_format": "hh-sol-artifact-1",
  "contractName": "AuditLog",
  "sourceName": "contracts/AuditLog.sol",
  "abi": [
    {
      "inputs": [],
      "stateMutability": "nonpayable",
      "type": "constructor"
    },
    {
      "anonymous": false,
      "inputs": [
        {
          "indexed": true,
          "internalType": "address",
          "name": "user",
          "type": "address"
        },
        {
          "indexed": true,
          "internalType": "bytes32",
          "name": "rulesHash",
          "type": "bytes32"
        },
        {
          "indexed": false,
          "internalType": "uint256",
          "name": "limit",
          "type": "uint256"
        },
        {
          "indexed": false,
          "internalType": "uint256",
          "name": "timestamp",
          "type": "uint256"
        }
      ],
      "name": "CapsuleCreated",
      "type": "event"
    },
    {
      "anonymous": false,
      "inputs": [
        {
          "indexed": true,
          "internalType": "address",
          "name": "user",
          "type": "address"
        },
        {
          "indexed": false,
          "internalType": "string",
          "name": "merchant",
          "type": "string"
        },
        {
          "indexed": false,
          "internalType": "string",
          "name": "mcc",
          "type": "string"
        },
        {
          "indexed": false,
          "internalType": "uint256",
          "name": "amount",
          "type": "uint256"
        },
        {
          "indexed": false,
          "internalType": "bool",
          "name": "approved",
          "type": "bool"
        },
        {
          "indexed": false,
          "internalType": "string",
          "name": "riskTier",
          "type": "string"
        },
        {
          "indexed": false,
          "internalType": "uint256",
          "name": "timestamp",
          "type": "uint256"
        }
      ],
      "name": "TxnDecision",
      "type": "event"
    },
    {
      "inputs": [
        {
          "internalType": "address",
          "name": "user",
          "type": "address"
        },
        {
          "internalType": "bytes32",
          "name": "rulesHash",
          "type": "bytes32"
        },
        {
          "internalType": "uint256",
          "name": "limit",
          "type": "uint256"
        }
      ],
      "name": "logCapsuleCreated",
      "outputs": [],
      "stateMutability": "nonpayable",
      "type": "function"
    },
    {
      "inputs": [
        {
          "internalType": "address",
          "name": "user",
          "type": "address"
        },
        {
          "internalType": "string",
          "name": "merchant",
          "type": "string"
        },
        {
          "internalType": "string",
          "name": "mcc",
          "type": "string"
        },
        {
          "internalType": "uint256",
          "name": "amount",
          "type": "uint256"
        },
        {
          "internalType": "bool",
          "name": "approved",
          "type": "bool"
        },
        {
          "internalType": "string",
          "name": "riskTier",
          "type": "string"
        }
      ],
      "name": "logTxnDecision",
      "outputs": [],
      "stateMutability": "nonpayable",
      "type": "function"
    },
    {
      "inputs": [],
      "name": "owner",
      "outputs": [
        {
          "internalType": "address",
          "name": "",
          "type": "address"
        }
      ],
      "stateMutability": "view",
      "type": "function"
    }
  ],
  "bytecode": "0x608060405234801561001057600080fd5b50336000806101000a81548173ffffffffffffffffffffffffffffffffffffffff021916908373ffffffffffffffffffffffffffffffffffffffff16021790555061073b806100606000396000f3fe608060405234801561001057600080fd5b50600436106100415760003560e01c806315e17322146100465780638da5cb5b14610062578063f4bb8dab14610080575b600080fd5b610060600480360381019061005b919061036f565b61009c565b005b61006a610180565b60405161007791906103d1565b60405180910390f35b61009a60048036038101906100959190610489565b6101a4565b005b60008054906101000a900473ffffffffffffffffffffffffffffffffffffffff1673ffffffffffffffffffffffffffffffffffffffff163373ffffffffffffffffffffffffffffffffffffffff161461012a576040517f08c379a0000000000000000000000000000000000000000000000000000000008152600401610121906105d5565b60405180910390fd5b818373ffffffffffffffffffffffffffffffffffffffff167fad820c5e3fc041d321bef581832542588e986df01525d139af146c86414eb14a8342604051610173929190610604565b60405180910390a3505050565b60008054906101000a900473ffffffffffffffffffffffffffffffffffffffff1681565b60008054906101000a900473ffffffffffffffffffffffffffffffffffffffff1673ffffffffffffffffffffffffffffffffffffffff163373ffffffffffffffffffffffffffffffffffffffff1614610232576040517f08c379a0000000000000000000000000000000000000000000000000000000008152600401610229906105d5565b60405180910390fd5b8873ffffffffffffffffffffffffffffffffffffffff167f3e7e871a2b4345d2f2e07a61bbadc055d16a57342ea747ef66486b44becf7be589898989898989894260405161028899989796959493929190610689565b60405180910390a2505050505050505050565b600080fd5b600080fd5b600073ffffffffffffffffffffffffffffffffffffffff82169050919050565b60006102d0826102a5565b9050919050565b6102e0816102c5565b81146102eb57600080fd5b50565b6000813590506102fd816102d7565b92915050565b6000819050919050565b61031681610303565b811461032157600080fd5b50565b6000813590506103338161030d565b92915050565b6000819050919050565b61034c81610339565b811461035757600080fd5b50565b60008135905061036981610343565b92915050565b6000806000606084860312156103885761038761029b565b5b6000610396868287016102ee565b93505060206103a786828701610324565b92505060406103b88682870161035a565b9150509250925092565b6103cb816102c5565b82525050565b60006020820190506103e660008301846103c2565b92915050565b600080fd5b600080fd5b600080fd5b60008083601f840112610411576104106103ec565b5b8235905067ffffffffffffffff81111561042e5761042d6103f1565b5b60208301915083600182028301111561044a576104496103f6565b5b9250929050565b60008115159050919050565b61046681610451565b811461047157600080fd5b50565b6000813590506104838161045d565b92915050565b600080600080600080600080600060c08a8c0312156104ab576104aa61029b565b5b60006104b98c828d016102ee565b99505060208a013567ffffffffffffffff8111156104da576104d96102a0565b5b6104e68c828d016103fb565b985098505060408a013567ffffffffffffffff811115610509576105086102a0565b5b6105158c828d016103fb565b965096505060606105288c828d0161035a565b94505060806105398c828d01610474565b93505060a08a013567ffffffffffffffff81111561055a576105596102a0565b5b6105668c828d016103fb565b92509250509295985092959850929598565b600082825260208201905092915050565b7f6f6e6c79206f776e657200000000000000000000000000000000000000000000600082015250565b60006105bf600a83610578565b91506105ca82610589565b602082019050919050565b600060208201905081810360008301526105ee816105b2565b9050919050565b6105fe81610339565b82525050565b600060408201905061061960008301856105f5565b61062660208301846105f5565b9392505050565b82818337600083830152505050565b6000601f19601f8301169050919050565b60006106598385610578565b935061066683858461062d565b61066f8361063c565b840190509392505050565b61068381610451565b82525050565b600060c08201905081810360008301526106a4818b8d61064d565b905081810360208301526106b981898b61064d565b90506106c860408301886105f5565b6106d5606083018761067a565b81810360808301526106e881858761064d565b90506106f760a08301846105f5565b9a995050505050505050505056fea26469706673582212201138802e6a5ac7e92b4786019577c6bd039689b1e5f283227ac22476dca2137c64736f6c63430008180033",
  "linkReferences": {},
  "deployedLinkReferences": {}
}